{"abi":[{"type":"constructor","inputs":[{"name":"_token","type":"address","internalType":"address"}],"stateMutability":"nonpayable"},{"type":"function","name":"lockTokens","inputs":[{"name":"amount","type":"uint256","internalType":"uint256"},{"name":"targetChain","type":"string","internalType":"string"}],"outputs":[],"stateMutability":"nonpayable"},{"type":"function","name":"processedTx","inputs":[{"name":"","type":"bytes32","internalType":"bytes32"}],"outputs":[{"name":"","type":"bool","internalType":"bool"}],"stateMutability":"view"},{"type":"function","name":"releaseTokens","inputs":[{"name":"to","type":"address","internalType":"address"},{"name":"amount","type":"uint256","internalType":"uint256"},{"name":"sourceTx","type":"bytes32","internalType":"bytes32"}],"outputs":[],"stateMutability":"nonpayable"},{"type":"function","name":"token","inputs":[],"outputs":[{"name":"","type":"address","internalType":"contract MyToken"}],"stateMutability":"view"},{"type":"event","name":"BridgeFinalized","inputs":[{"name":"user","type":"address","indexed":true,"internalType":"address"},{"name":"amount","type":"uint256","indexed":false,"internalType":"uint256"},{"name":"sourceTx","type":"bytes32","indexed":false,"internalType":"bytes32"}],"anonymous":false},{"type":"event","name":"BridgeInitiated","inputs":[{"name":"user","type":"address","indexed":true,"internalType":"address"},{"name":"amount","type":"uint256","indexed":false,"internalType":"uint256"},{"name":"targetChain","type":"string","indexed":false,"internalType":"string"},{"name":"txHash","type":"bytes32","indexed":false,"internalType":"bytes32"}],"anonymous":false},{"type":"error","name":"ReentrancyGuardReentrantCall","inputs":[]}],"bytecode":{"object":"0x608060405234801561000f575f5ffd5b50604051610b89380380610b89833981810160405281019061003191906100dc565b600180819055508060025f6101000a81548173ffffffffffffffffffffffffffffffffffffffff021916908373ffffffffffffffffffffffffffffffffffffffff16021790555050610107565b5f5ffd5b5f73ffffffffffffffffffffffffffffffffffffffff82169050919050565b5f6100ab82610082565b9050919050565b6100bb816100a1565b81146100c5575f5ffd5b50565b5f815190506100d6816100b2565b92915050565b5f602082840312156100f1576100f061007e565b5b5f6100fe848285016100c8565b91505092915050565b610a75806101145f395ff3fe608060405234801561000f575f5ffd5b506004361061004a575f3560e01c8063081345671461004e578063ab78dd531461006a578063bcca1e1014610086578063fc0c546a146100b6575b5f5ffd5b6100686004803603810190610063919061058c565b6100d4565b005b610084600480360381019061007f9190610673565b610203565b005b6100a0600480360381019061009b91906106c3565b61037c565b6040516100ad9190610708565b60405180910390f35b6100be610398565b6040516100cb919061077c565b60405180910390f35b6100dc6103bd565b60025f9054906101000a900473ffffffffffffffffffffffffffffffffffffffff1673ffffffffffffffffffffffffffffffffffffffff166323b872dd3330856040518463ffffffff1660e01b815260040161013a939291906107b3565b6020604051808303815f875af1158015610156573d5f5f3e3d5ffd5b505050506040513d601f19601f8201168201806040525081019061017a9190610812565b503373ffffffffffffffffffffffffffffffffffffffff167fd795e26b12d1f36cc8217961a290d9c2ca3ebe4858af774a0faaf1099051aae383833386426040516020016101ca939291906108a2565b604051602081830303815290604052805190602001206040516101ef9392919061094d565b60405180910390a26101ff610403565b5050565b805f5f8281526020019081526020015f205f9054906101000a900460ff1615610261576040517f08c379a0000000000000000000000000000000000000000000000000000000008152600401610258906109d3565b60405180910390fd5b60025f9054906101000a900473ffffffffffffffffffffffffffffffffffffffff1673ffffffffffffffffffffffffffffffffffffffff1663a9059cbb85856040518363ffffffff1660e01b81526004016102bd9291906109f1565b6020604051808303815f875af11580156102d9573d5f5f3e3d5ffd5b505050506040513d601f19601f820116820180604052508101906102fd9190610812565b508373ffffffffffffffffffffffffffffffffffffffff167f1d0f1cbec261e10a6ddc212adf2ae58371709340806f9f22d6a74c8f072ce9c18484604051610346929190610a18565b60405180910390a260015f5f8381526020019081526020015f205f6101000a81548160ff02191690831515021790555050505050565b5f602052805f5260405f205f915054906101000a900460ff1681565b60025f9054906101000a900473ffffffffffffffffffffffffffffffffffffffff1681565b6002600154036103f9576040517f3ee5aeb500000000000000000000000000000000000000000000000000000000815260040160405180910390fd5b6002600181905550565b60018081905550565b5f604051905090565b5f5ffd5b5f5ffd5b5f819050919050565b61042f8161041d565b8114610439575f5ffd5b50565b5f8135905061044a81610426565b92915050565b5f5ffd5b5f5ffd5b5f601f19601f8301169050919050565b7f4e487b71000000000000000000000000000000000000000000000000000000005f52604160045260245ffd5b61049e82610458565b810181811067ffffffffffffffff821117156104bd576104bc610468565b5b80604052505050565b5f6104cf61040c565b90506104db8282610495565b919050565b5f67ffffffffffffffff8211156104fa576104f9610468565b5b61050382610458565b9050602081019050919050565b828183375f83830152505050565b5f61053061052b846104e0565b6104c6565b90508281526020810184848401111561054c5761054b610454565b5b610557848285610510565b509392505050565b5f82601f83011261057357610572610450565b5b813561058384826020860161051e565b91505092915050565b5f5f604083850312156105a2576105a1610415565b5b5f6105af8582860161043c565b925050602083013567ffffffffffffffff8111156105d0576105cf610419565b5b6105dc8582860161055f565b9150509250929050565b5f73ffffffffffffffffffffffffffffffffffffffff82169050919050565b5f61060f826105e6565b9050919050565b61061f81610605565b8114610629575f5ffd5b50565b5f8135905061063a81610616565b92915050565b5f819050919050565b61065281610640565b811461065c575f5ffd5b50565b5f8135905061066d81610649565b92915050565b5f5f5f6060848603121561068a57610689610415565b5b5f6106978682870161062c565b93505060206106a88682870161043c565b92505060406106b98682870161065f565b9150509250925092565b5f602082840312156106d8576106d7610415565b5b5f6106e58482850161065f565b91505092915050565b5f8115159050919050565b610702816106ee565b82525050565b5f60208201905061071b5f8301846106f9565b92915050565b5f819050919050565b5f61074461073f61073a846105e6565b610721565b6105e6565b9050919050565b5f6107558261072a565b9050919050565b5f6107668261074b565b9050919050565b6107768161075c565b82525050565b5f60208201905061078f5f83018461076d565b92915050565b61079e81610605565b82525050565b6107ad8161041d565b82525050565b5f6060820190506107c65f830186610795565b6107d36020830185610795565b6107e060408301846107a4565b949350505050565b6107f1816106ee565b81146107fb575f5ffd5b50565b5f8151905061080c816107e8565b92915050565b5f6020828403121561082757610826610415565b5b5f610834848285016107fe565b91505092915050565b5f8160601b9050919050565b5f6108538261083d565b9050919050565b5f61086482610849565b9050919050565b61087c61087782610605565b61085a565b82525050565b5f819050919050565b61089c6108978261041d565b610882565b82525050565b5f6108ad828661086b565b6014820191506108bd828561088b565b6020820191506108cd828461088b565b602082019150819050949350505050565b5f81519050919050565b5f82825260208201905092915050565b8281835e5f83830152505050565b5f610910826108de565b61091a81856108e8565b935061092a8185602086016108f8565b61093381610458565b840191505092915050565b61094781610640565b82525050565b5f6060820190506109605f8301866107a4565b81810360208301526109728185610906565b9050610981604083018461093e565b949350505050565b7f416c72656164792070726f6365737365640000000000000000000000000000005f82015250565b5f6109bd6011836108e8565b91506109c882610989565b602082019050919050565b5f6020820190508181035f8301526109ea816109b1565b9050919050565b5f604082019050610a045f830185610795565b610a1160208301846107a4565b9392505050565b5f604082019050610a2b5f8301856107a4565b610a38602083018461093e565b939250505056fea264697066735822122047bb8df4ca28c668e5d41dede3fb2363e13d0cb11b8dc57dc1e4605bb85cdf3064736f6c634300081c0033","linkReferences":{}},"methodIdentifiers":{"lockTokens(uint256,string)":"08134567","processedTx(bytes32)":"bcca1e10","releaseTokens(address,uint256,bytes32)":"ab78dd53","token()":"fc0c546a"},"id":34}