{"abi":[{"type":"constructor","inputs":[{"name":"_token","type":"address","internalType":"address"}],"stateMutability":"nonpayable"},{"type":"function","name":"burnTokens","inputs":[{"name":"amount","type":"uint256","internalType":"uint256"},{"name":"targetChain","type":"string","internalType":"string"}],"outputs":[],"stateMutability":"nonpayable"},{"type":"function","name":"mintTokens","inputs":[{"name":"to","type":"address","internalType":"address"},{"name":"amount","type":"uint256","internalType":"uint256"},{"name":"sourceTx","type":"bytes32","internalType":"bytes32"}],"outputs":[],"stateMutability":"nonpayable"},{"type":"function","name":"processedTx","inputs":[{"name":"","type":"bytes32","internalType":"bytes32"}],"outputs":[{"name":"","type":"bool","internalType":"bool"}],"stateMutability":"view"},{"type":"function","name":"token","inputs":[],"outputs":[{"name":"","type":"address","internalType":"contract MyToken"}],"stateMutability":"view"},{"type":"event","name":"BridgeFinalized","inputs":[{"name":"user","type":"address","indexed":true,"internalType":"address"},{"name":"amount","type":"uint256","indexed":false,"internalType":"uint256"},{"name":"sourceTx","type":"bytes32","indexed":false,"internalType":"bytes32"}],"anonymous":false},{"type":"event","name":"BridgeInitiated","inputs":[{"name":"user","type":"address","indexed":true,"internalType":"address"},{"name":"amount","type":"uint256","indexed":false,"internalType":"uint256"},{"name":"targetChain","type":"string","indexed":false,"internalType":"string"},{"name":"txHash","type":"bytes32","indexed":false,"internalType":"bytes32"}],"anonymous":false},{"type":"error","name":"ReentrancyGuardReentrantCall","inputs":[]}],"bytecode":{"object":"0x608060405234801561000f575f5ffd5b50604051610ad5380380610ad5833981810160405281019061003191906100dc565b600180819055508060025f6101000a81548173ffffffffffffffffffffffffffffffffffffffff021916908373ffffffffffffffffffffffffffffffffffffffff16021790555050610107565b5f5ffd5b5f73ffffffffffffffffffffffffffffffffffffffff82169050919050565b5f6100ab82610082565b9050919050565b6100bb816100a1565b81146100c5575f5ffd5b50565b5f815190506100d6816100b2565b92915050565b5f602082840312156100f1576100f061007e565b5b5f6100fe848285016100c8565b91505092915050565b6109c1806101145f395ff3fe608060405234801561000f575f5ffd5b506004361061004a575f3560e01c80632c16ffd81461004e5780638faa18561461006a578063bcca1e1014610086578063fc0c546a146100b6575b5f5ffd5b610068600480360381019061006391906104b3565b6100d4565b005b610084600480360381019061007f919061063f565b610239565b005b6100a0600480360381019061009b9190610699565b610352565b6040516100ad91906106de565b60405180910390f35b6100be61036e565b6040516100cb9190610752565b60405180910390f35b805f5f8281526020019081526020015f205f9054906101000a900460ff1615610132576040517f08c379a0000000000000000000000000000000000000000000000000000000008152600401610129906107c5565b60405180910390fd5b60025f9054906101000a900473ffffffffffffffffffffffffffffffffffffffff1673ffffffffffffffffffffffffffffffffffffffff166340c10f1985856040518363ffffffff1660e01b815260040161018e929190610801565b5f604051808303815f87803b1580156101a5575f5ffd5b505af11580156101b7573d5f5f3e3d5ffd5b505050508373ffffffffffffffffffffffffffffffffffffffff167f1d0f1cbec261e10a6ddc212adf2ae58371709340806f9f22d6a74c8f072ce9c18484604051610203929190610837565b60405180910390a260015f5f8381526020019081526020015f205f6101000a81548160ff02191690831515021790555050505050565b610241610393565b60025f9054906101000a900473ffffffffffffffffffffffffffffffffffffffff1673ffffffffffffffffffffffffffffffffffffffff1663568b4afe33846040518363ffffffff1660e01b815260040161029d929190610801565b5f604051808303815f87803b1580156102b4575f5ffd5b505af11580156102c6573d5f5f3e3d5ffd5b505050503373ffffffffffffffffffffffffffffffffffffffff167fd795e26b12d1f36cc8217961a290d9c2ca3ebe4858af774a0faaf1099051aae38383338642604051602001610319939291906108c3565b6040516020818303038152906040528051906020012060405161033e9392919061094f565b60405180910390a261034e6103d9565b5050565b5f602052805f5260405f205f915054906101000a900460ff1681565b60025f9054906101000a900473ffffffffffffffffffffffffffffffffffffffff1681565b6002600154036103cf576040517f3ee5aeb500000000000000000000000000000000000000000000000000000000815260040160405180910390fd5b6002600181905550565b60018081905550565b5f604051905090565b5f5ffd5b5f5ffd5b5f73ffffffffffffffffffffffffffffffffffffffff82169050919050565b5f61041c826103f3565b9050919050565b61042c81610412565b8114610436575f5ffd5b50565b5f8135905061044781610423565b92915050565b5f819050919050565b61045f8161044d565b8114610469575f5ffd5b50565b5f8135905061047a81610456565b92915050565b5f819050919050565b61049281610480565b811461049c575f5ffd5b50565b5f813590506104ad81610489565b92915050565b5f5f5f606084860312156104ca576104c96103eb565b5b5f6104d786828701610439565b93505060206104e88682870161046c565b92505060406104f98682870161049f565b9150509250925092565b5f5ffd5b5f5ffd5b5f601f19601f8301169050919050565b7f4e487b71000000000000000000000000000000000000000000000000000000005f52604160045260245ffd5b6105518261050b565b810181811067ffffffffffffffff821117156105705761056f61051b565b5b80604052505050565b5f6105826103e2565b905061058e8282610548565b919050565b5f67ffffffffffffffff8211156105ad576105ac61051b565b5b6105b68261050b565b9050602081019050919050565b828183375f83830152505050565b5f6105e36105de84610593565b610579565b9050828152602081018484840111156105ff576105fe610507565b5b61060a8482856105c3565b509392505050565b5f82601f83011261062657610625610503565b5b81356106368482602086016105d1565b91505092915050565b5f5f60408385031215610655576106546103eb565b5b5f6106628582860161046c565b925050602083013567ffffffffffffffff811115610683576106826103ef565b5b61068f85828601610612565b9150509250929050565b5f602082840312156106ae576106ad6103eb565b5b5f6106bb8482850161049f565b91505092915050565b5f8115159050919050565b6106d8816106c4565b82525050565b5f6020820190506106f15f8301846106cf565b92915050565b5f819050919050565b5f61071a610715610710846103f3565b6106f7565b6103f3565b9050919050565b5f61072b82610700565b9050919050565b5f61073c82610721565b9050919050565b61074c81610732565b82525050565b5f6020820190506107655f830184610743565b92915050565b5f82825260208201905092915050565b7f416c72656164792070726f6365737365640000000000000000000000000000005f82015250565b5f6107af60118361076b565b91506107ba8261077b565b602082019050919050565b5f6020820190508181035f8301526107dc816107a3565b9050919050565b6107ec81610412565b82525050565b6107fb8161044d565b82525050565b5f6040820190506108145f8301856107e3565b61082160208301846107f2565b9392505050565b61083181610480565b82525050565b5f60408201905061084a5f8301856107f2565b6108576020830184610828565b9392505050565b5f8160601b9050919050565b5f6108748261085e565b9050919050565b5f6108858261086a565b9050919050565b61089d61089882610412565b61087b565b82525050565b5f819050919050565b6108bd6108b88261044d565b6108a3565b82525050565b5f6108ce828661088c565b6014820191506108de82856108ac565b6020820191506108ee82846108ac565b602082019150819050949350505050565b5f81519050919050565b8281835e5f83830152505050565b5f610921826108ff565b61092b818561076b565b935061093b818560208601610909565b6109448161050b565b840191505092915050565b5f6060820190506109625f8301866107f2565b81810360208301526109748185610917565b90506109836040830184610828565b94935050505056fea26469706673582212203c6e7f01cadec119a7cac84ab8b85ad3a2b9917f9ab4e476cdff4b235389e30864736f6c634300081c0033","linkReferences":{}},"methodIdentifiers":{"burnTokens(uint256,string)":"8faa1856","mintTokens(address,uint256,bytes32)":"2c16ffd8","processedTx(bytes32)":"bcca1e10","token()":"fc0c546a"},"id":33}