{"abi":[{"type":"constructor","inputs":[],"stateMutability":"nonpayable"},{"type":"function","name":"BRIDGE_ROLE","inputs":[],"outputs":[{"name":"","type":"bytes32","internalType":"bytes32"}],"stateMutability":"view"},{"type":"function","name":"DEFAULT_ADMIN_ROLE","inputs":[],"outputs":[{"name":"","type":"bytes32","internalType":"bytes32"}],"stateMutability":"view"},{"type":"function","name":"allowance","inputs":[{"name":"owner","type":"address","internalType":"address"},{"name":"spender","type":"address","internalType":"address"}],"outputs":[{"name":"","type":"uint256","internalType":"uint256"}],"stateMutability":"view"},{"type":"function","name":"approve","inputs":[{"name":"spender","type":"address","internalType":"address"},{"name":"value","type":"uint256","internalType":"uint256"}],"outputs":[{"name":"","type":"bool","internalType":"bool"}],"stateMutability":"nonpayable"},{"type":"function","name":"balanceOf","inputs":[{"name":"account","type":"address","internalType":"address"}],"outputs":[{"name":"","type":"uint256","internalType":"uint256"}],"stateMutability":"view"},{"type":"function","name":"burn","inputs":[{"name":"value","type":"uint256","internalType":"uint256"}],"outputs":[],"stateMutability":"nonpayable"},{"type":"function","name":"burnFrom","inputs":[{"name":"account","type":"address","internalType":"address"},{"name":"value","type":"uint256","internalType":"uint256"}],"outputs":[],"stateMutability":"nonpayable"},{"type":"function","name":"burnFromBridge","inputs":[{"name":"from","type":"address","internalType":"address"},{"name":"amount","type":"uint256","internalType":"uint256"}],"outputs":[],"stateMutability":"nonpayable"},{"type":"function","name":"decimals","inputs":[],"outputs":[{"name":"","type":"uint8","internalType":"uint8"}],"stateMutability":"view"},{"type":"function","name":"getRoleAdmin","inputs":[{"name":"role","type":"bytes32","internalType":"bytes32"}],"outputs":[{"name":"","type":"bytes32","internalType":"bytes32"}],"stateMutability":"view"},{"type":"function","name":"grantRole","inputs":[{"name":"role","type":"bytes32","internalType":"bytes32"},{"name":"account","type":"address","internalType":"address"}],"outputs":[],"stateMutability":"nonpayable"},{"type":"function","name":"hasRole","inputs":[{"name":"role","type":"bytes32","internalType":"bytes32"},{"name":"account","type":"address","internalType":"address"}],"outputs":[{"name":"","type":"bool","internalType":"bool"}],"stateMutability":"view"},{"type":"function","name":"mint","inputs":[{"name":"to","type":"address","internalType":"address"},{"name":"amount","type":"uint256","internalType":"uint256"}],"outputs":[],"stateMutability":"nonpayable"},{"type":"function","name":"name","inputs":[],"outputs":[{"name":"","type":"string","internalType":"string"}],"stateMutability":"view"},{"type":"function","name":"renounceRole","inputs":[{"name":"role","type":"bytes32","internalType":"bytes32"},{"name":"callerConfirmation","type":"address","internalType":"address"}],"outputs":[],"stateMutability":"nonpayable"},{"type":"function","name":"revokeRole","inputs":[{"name":"role","type":"bytes32","internalType":"bytes32"},{"name":"account","type":"address","internalType":"address"}],"outputs":[],"stateMutability":"nonpayable"},{"type":"function","name":"supportsInterface","inputs":[{"name":"interfaceId","type":"bytes4","internalType":"bytes4"}],"outputs":[{"name":"","type":"bool","internalType":"bool"}],"stateMutability":"view"},{"type":"function","name":"symbol","inputs":[],"outputs":[{"name":"","type":"string","internalType":"string"}],"stateMutability":"view"},{"type":"function","name":"totalSupply","inputs":[],"outputs":[{"name":"","type":"uint256","internalType":"uint256"}],"stateMutability":"view"},{"type":"function","name":"transfer","inputs":[{"name":"to","type":"address","internalType":"address"},{"name":"value","type":"uint256","internalType":"uint256"}],"outputs":[{"name":"","type":"bool","internalType":"bool"}],"stateMutability":"nonpayable"},{"type":"function","name":"transferFrom","inputs":[{"name":"from","type":"address","internalType":"address"},{"name":"to","type":"address","internalType":"address"},{"name":"value","type":"uint256","internalType":"uint256"}],"outputs":[{"name":"","type":"bool","internalType":"bool"}],"stateMutability":"nonpayable"},{"type":"event","name":"Approval","inputs":[{"name":"owner","type":"address","indexed":true,"internalType":"address"},{"name":"spender","type":"address","indexed":true,"internalType":"address"},{"name":"value","type":"uint256","indexed":false,"internalType":"uint256"}],"anonymous":false},{"type":"event","name":"RoleAdminChanged","inputs":[{"name":"role","type":"bytes32","indexed":true,"internalType":"bytes32"},{"name":"previousAdminRole","type":"bytes32","indexed":true,"internalType":"bytes32"},{"name":"newAdminRole","type":"bytes32","indexed":true,"internalType":"bytes32"}],"anonymous":false},{"type":"event","name":"RoleGranted","inputs":[{"name":"role","type":"bytes32","indexed":true,"internalType":"bytes32"},{"name":"account","type":"address","indexed":true,"internalType":"address"},{"name":"sender","type":"address","indexed":true,"internalType":"address"}],"anonymous":false},{"type":"event","name":"RoleRevoked","inputs":[{"name":"role","type":"bytes32","indexed":true,"internalType":"bytes32"},{"name":"account","type":"address","indexed":true,"internalType":"address"},{"name":"sender","type":"address","indexed":true,"internalType":"address"}],"anonymous":false},{"type":"event","name":"Transfer","inputs":[{"name":"from","type":"address","indexed":true,"internalType":"address"},{"name":"to","type":"address","indexed":true,"internalType":"address"},{"name":"value","type":"uint256","indexed":false,"internalType":"uint256"}],"anonymous":false},{"type":"error","name":"AccessControlBadConfirmation","inputs":[]},{"type":"error","name":"AccessControlUnauthorizedAccount","inputs":[{"name":"account","type":"address","internalType":"address"},{"name":"neededRole","type":"bytes32","internalType":"bytes32"}]},{"type":"error","name":"ERC20InsufficientAllowance","inputs":[{"name":"spender","type":"address","internalType":"address"},{"name":"allowance","type":"uint256","internalType":"uint256"},{"name":"needed","type":"uint256","internalType":"uint256"}]},{"type":"error","name":"ERC20InsufficientBalance","inputs":[{"name":"sender","type":"address","internalType":"address"},{"name":"balance","type":"uint256","internalType":"uint256"},{"name":"needed","type":"uint256","internalType":"uint256"}]},{"type":"error","name":"ERC20InvalidApprover","inputs":[{"name":"approver","type":"address","internalType":"address"}]},{"type":"error","name":"ERC20InvalidReceiver","inputs":[{"name":"receiver","type":"address","internalType":"address"}]},{"type":"error","name":"ERC20InvalidSender","inputs":[{"name":"sender","type":"address","internalType":"address"}]},{"type":"error","name":"ERC20InvalidSpender","inputs":[{"name":"spender","type":"address","internalType":"address"}]}],"bytecode":{"object":"0x608060405234801561000f575f5ffd5b506040518060400160405280600781526020017f4d79546f6b656e000000000000000000000000000000000000000000000000008152506040518060400160405280600381526020017f4d544b0000000000000000000000000000000000000000000000000000000000815250816003908161008b9190610454565b50806004908161009b9190610454565b5050506100b05f5f1b336100b660201b60201c565b50610523565b5f6100c783836101ac60201b60201c565b6101a257600160055f8581526020019081526020015f205f015f8473ffffffffffffffffffffffffffffffffffffffff1673ffffffffffffffffffffffffffffffffffffffff1681526020019081526020015f205f6101000a81548160ff02191690831515021790555061013f61021060201b60201c565b73ffffffffffffffffffffffffffffffffffffffff168273ffffffffffffffffffffffffffffffffffffffff16847f2f8788117e7eff1d82e926ec794901d17c78024a50270940304540a733656f0d60405160405180910390a4600190506101a6565b5f90505b92915050565b5f60055f8481526020019081526020015f205f015f8373ffffffffffffffffffffffffffffffffffffffff1673ffffffffffffffffffffffffffffffffffffffff1681526020019081526020015f205f9054906101000a900460ff16905092915050565b5f33905090565b5f81519050919050565b7f4e487b71000000000000000000000000000000000000000000000000000000005f52604160045260245ffd5b7f4e487b71000000000000000000000000000000000000000000000000000000005f52602260045260245ffd5b5f600282049050600182168061029257607f821691505b6020821081036102a5576102a461024e565b5b50919050565b5f819050815f5260205f209050919050565b5f6020601f8301049050919050565b5f82821b905092915050565b5f600883026103077fffffffffffffffffffffffffffffffffffffffffffffffffffffffffffffffff826102cc565b61031186836102cc565b95508019841693508086168417925050509392505050565b5f819050919050565b5f819050919050565b5f61035561035061034b84610329565b610332565b610329565b9050919050565b5f819050919050565b61036e8361033b565b61038261037a8261035c565b8484546102d8565b825550505050565b5f5f905090565b61039961038a565b6103a4818484610365565b505050565b5b818110156103c7576103bc5f82610391565b6001810190506103aa565b5050565b601f82111561040c576103dd816102ab565b6103e6846102bd565b810160208510156103f5578190505b610409610401856102bd565b8301826103a9565b50505b505050565b5f82821c905092915050565b5f61042c5f1984600802610411565b1980831691505092915050565b5f610444838361041d565b9150826002028217905092915050565b61045d82610217565b67ffffffffffffffff81111561047657610475610221565b5b610480825461027b565b61048b8282856103cb565b5f60209050601f8311600181146104bc575f84156104aa578287015190505b6104b48582610439565b86555061051b565b601f1984166104ca866102ab565b5f5b828110156104f1578489015182556001820191506020850194506020810190506104cc565b8683101561050e578489015161050a601f89168261041d565b8355505b6001600288020188555050505b505050505050565b6117d5806105305f395ff3fe608060405234801561000f575f5ffd5b5060043610610135575f3560e01c806342966c68116100b657806395d89b411161007a57806395d89b411461035b578063a217fddf14610379578063a9059cbb14610397578063b5bfddea146103c7578063d547741f146103e5578063dd62ed3e1461040157610135565b806342966c68146102a7578063568b4afe146102c357806370a08231146102df57806379cc67901461030f57806391d148541461032b57610135565b8063248a9ca3116100fd578063248a9ca3146102055780632f2ff15d14610235578063313ce5671461025157806336568abe1461026f57806340c10f191461028b57610135565b806301ffc9a71461013957806306fdde0314610169578063095ea7b31461018757806318160ddd146101b757806323b872dd146101d5575b5f5ffd5b610153600480360381019061014e91906112a1565b610431565b60405161016091906112e6565b60405180910390f35b6101716104aa565b60405161017e919061136f565b60405180910390f35b6101a1600480360381019061019c919061141c565b61053a565b6040516101ae91906112e6565b60405180910390f35b6101bf61055c565b6040516101cc9190611469565b60405180910390f35b6101ef60048036038101906101ea9190611482565b610565565b6040516101fc91906112e6565b60405180910390f35b61021f600480360381019061021a9190611505565b610593565b60405161022c919061153f565b60405180910390f35b61024f600480360381019061024a9190611558565b6105b0565b005b6102596105d2565b60405161026691906115b1565b60405180910390f35b61028960048036038101906102849190611558565b6105da565b005b6102a560048036038101906102a0919061141c565b610655565b005b6102c160048036038101906102bc91906115ca565b61068e565b005b6102dd60048036038101906102d8919061141c565b6106a2565b005b6102f960048036038101906102f491906115f5565b6106db565b6040516103069190611469565b60405180910390f35b6103296004803603810190610324919061141c565b610720565b005b61034560048036038101906103409190611558565b610740565b60405161035291906112e6565b60405180910390f35b6103636107a4565b604051610370919061136f565b60405180910390f35b610381610834565b60405161038e919061153f565b60405180910390f35b6103b160048036038101906103ac919061141c565b61083a565b6040516103be91906112e6565b60405180910390f35b6103cf61085c565b6040516103dc919061153f565b60405180910390f35b6103ff60048036038101906103fa9190611558565b610880565b005b61041b60048036038101906104169190611620565b6108a2565b6040516104289190611469565b60405180910390f35b5f7f7965db0b000000000000000000000000000000000000000000000000000000007bffffffffffffffffffffffffffffffffffffffffffffffffffffffff1916827bffffffffffffffffffffffffffffffffffffffffffffffffffffffff191614806104a357506104a282610924565b5b9050919050565b6060600380546104b99061168b565b80601f01602080910402602001604051908101604052809291908181526020018280546104e59061168b565b80156105305780601f1061050757610100808354040283529160200191610530565b820191905f5260205f20905b81548152906001019060200180831161051357829003601f168201915b5050505050905090565b5f5f61054461098d565b9050610551818585610994565b600191505092915050565b5f600254905090565b5f5f61056f61098d565b905061057c8582856109a6565b610587858585610a39565b60019150509392505050565b5f60055f8381526020019081526020015f20600101549050919050565b6105b982610593565b6105c281610b29565b6105cc8383610b3d565b50505050565b5f6012905090565b6105e261098d565b73ffffffffffffffffffffffffffffffffffffffff168173ffffffffffffffffffffffffffffffffffffffff1614610646576040517f6697b23200000000000000000000000000000000000000000000000000000000815260040160405180910390fd5b6106508282610c27565b505050565b7f52ba824bfabc2bcfcdf7f0edbb486ebb05e1836c90e78047efeb949990f72e5f61067f81610b29565b6106898383610d11565b505050565b61069f61069961098d565b82610d90565b50565b7f52ba824bfabc2bcfcdf7f0edbb486ebb05e1836c90e78047efeb949990f72e5f6106cc81610b29565b6106d68383610d90565b505050565b5f5f5f8373ffffffffffffffffffffffffffffffffffffffff1673ffffffffffffffffffffffffffffffffffffffff1681526020019081526020015f20549050919050565b6107328261072c61098d565b836109a6565b61073c8282610d90565b5050565b5f60055f8481526020019081526020015f205f015f8373ffffffffffffffffffffffffffffffffffffffff1673ffffffffffffffffffffffffffffffffffffffff1681526020019081526020015f205f9054906101000a900460ff16905092915050565b6060600480546107b39061168b565b80601f01602080910402602001604051908101604052809291908181526020018280546107df9061168b565b801561082a5780601f106108015761010080835404028352916020019161082a565b820191905f5260205f20905b81548152906001019060200180831161080d57829003601f168201915b5050505050905090565b5f5f1b81565b5f5f61084461098d565b9050610851818585610a39565b600191505092915050565b7f52ba824bfabc2bcfcdf7f0edbb486ebb05e1836c90e78047efeb949990f72e5f81565b61088982610593565b61089281610b29565b61089c8383610c27565b50505050565b5f60015f8473ffffffffffffffffffffffffffffffffffffffff1673ffffffffffffffffffffffffffffffffffffffff1681526020019081526020015f205f8373ffffffffffffffffffffffffffffffffffffffff1673ffffffffffffffffffffffffffffffffffffffff1681526020019081526020015f2054905092915050565b5f7f01ffc9a7000000000000000000000000000000000000000000000000000000007bffffffffffffffffffffffffffffffffffffffffffffffffffffffff1916827bffffffffffffffffffffffffffffffffffffffffffffffffffffffff1916149050919050565b5f33905090565b6109a18383836001610e0f565b505050565b5f6109b184846108a2565b90507fffffffffffffffffffffffffffffffffffffffffffffffffffffffffffffffff811015610a335781811015610a24578281836040517ffb8f41b2000000000000000000000000000000000000000000000000000000008152600401610a1b939291906116ca565b60405180910390fd5b610a3284848484035f610e0f565b5b50505050565b5f73ffffffffffffffffffffffffffffffffffffffff168373ffffffffffffffffffffffffffffffffffffffff1603610aa9575f6040517f96c6fd1e000000000000000000000000000000000000000000000000000000008152600401610aa091906116ff565b60405180910390fd5b5f73ffffffffffffffffffffffffffffffffffffffff168273ffffffffffffffffffffffffffffffffffffffff1603610b19575f6040517fec442f05000000000000000000000000000000000000000000000000000000008152600401610b1091906116ff565b60405180910390fd5b610b24838383610fde565b505050565b610b3a81610b3561098d565b6111f7565b50565b5f610b488383610740565b610c1d57600160055f8581526020019081526020015f205f015f8473ffffffffffffffffffffffffffffffffffffffff1673ffffffffffffffffffffffffffffffffffffffff1681526020019081526020015f205f6101000a81548160ff021916908315150217905550610bba61098d565b73ffffffffffffffffffffffffffffffffffffffff168273ffffffffffffffffffffffffffffffffffffffff16847f2f8788117e7eff1d82e926ec794901d17c78024a50270940304540a733656f0d60405160405180910390a460019050610c21565b5f90505b92915050565b5f610c328383610740565b15610d07575f60055f8581526020019081526020015f205f015f8473ffffffffffffffffffffffffffffffffffffffff1673ffffffffffffffffffffffffffffffffffffffff1681526020019081526020015f205f6101000a81548160ff021916908315150217905550610ca461098d565b73ffffffffffffffffffffffffffffffffffffffff168273ffffffffffffffffffffffffffffffffffffffff16847ff6391f5c32d9c69d2a47ea670b442974b53935d1edc7fd64eb21e047a839171b60405160405180910390a460019050610d0b565b5f90505b92915050565b5f73ffffffffffffffffffffffffffffffffffffffff168273ffffffffffffffffffffffffffffffffffffffff1603610d81575f6040517fec442f05000000000000000000000000000000000000000000000000000000008152600401610d7891906116ff565b60405180910390fd5b610d8c5f8383610fde565b5050565b5f73ffffffffffffffffffffffffffffffffffffffff168273ffffffffffffffffffffffffffffffffffffffff1603610e00575f6040517f96c6fd1e000000000000000000000000000000000000000000000000000000008152600401610df791906116ff565b60405180910390fd5b610e0b825f83610fde565b5050565b5f73ffffffffffffffffffffffffffffffffffffffff168473ffffffffffffffffffffffffffffffffffffffff1603610e7f575f6040517fe602df05000000000000000000000000000000000000000000000000000000008152600401610e7691906116ff565b60405180910390fd5b5f73ffffffffffffffffffffffffffffffffffffffff168373ffffffffffffffffffffffffffffffffffffffff1603610eef575f6040517f94280d62000000000000000000000000000000000000000000000000000000008152600401610ee691906116ff565b60405180910390fd5b8160015f8673ffffffffffffffffffffffffffffffffffffffff1673ffffffffffffffffffffffffffffffffffffffff1681526020019081526020015f205f8573ffffffffffffffffffffffffffffffffffffffff1673ffffffffffffffffffffffffffffffffffffffff1681526020019081526020015f20819055508015610fd8578273ffffffffffffffffffffffffffffffffffffffff168473ffffffffffffffffffffffffffffffffffffffff167f8c5be1e5ebec7d5bd14f71427d1e84f3dd0314c0f7b2291e5b200ac8c7c3b92584604051610fcf9190611469565b60405180910390a35b50505050565b5f73ffffffffffffffffffffffffffffffffffffffff168373ffffffffffffffffffffffffffffffffffffffff160361102e578060025f8282546110229190611745565b925050819055506110fc565b5f5f5f8573ffffffffffffffffffffffffffffffffffffffff1673ffffffffffffffffffffffffffffffffffffffff1681526020019081526020015f20549050818110156110b7578381836040517fe450d38c0000000000000000000000000000000000000000000000000000000081526004016110ae939291906116ca565b60405180910390fd5b8181035f5f8673ffffffffffffffffffffffffffffffffffffffff1673ffffffffffffffffffffffffffffffffffffffff1681526020019081526020015f2081905550505b5f73ffffffffffffffffffffffffffffffffffffffff168273ffffffffffffffffffffffffffffffffffffffff1603611143578060025f828254039250508190555061118d565b805f5f8473ffffffffffffffffffffffffffffffffffffffff1673ffffffffffffffffffffffffffffffffffffffff1681526020019081526020015f205f82825401925050819055505b8173ffffffffffffffffffffffffffffffffffffffff168373ffffffffffffffffffffffffffffffffffffffff167fddf252ad1be2c89b69c2b068fc378daa952ba7f163c4a11628f55a4df523b3ef836040516111ea9190611469565b60405180910390a3505050565b6112018282610740565b6112445780826040517fe2517d3f00000000000000000000000000000000000000000000000000000000815260040161123b929190611778565b60405180910390fd5b5050565b5f5ffd5b5f7fffffffff0000000000000000000000000000000000000000000000000000000082169050919050565b6112808161124c565b811461128a575f5ffd5b50565b5f8135905061129b81611277565b92915050565b5f602082840312156112b6576112b5611248565b5b5f6112c38482850161128d565b91505092915050565b5f8115159050919050565b6112e0816112cc565b82525050565b5f6020820190506112f95f8301846112d7565b92915050565b5f81519050919050565b5f82825260208201905092915050565b8281835e5f83830152505050565b5f601f19601f8301169050919050565b5f611341826112ff565b61134b8185611309565b935061135b818560208601611319565b61136481611327565b840191505092915050565b5f6020820190508181035f8301526113878184611337565b905092915050565b5f73ffffffffffffffffffffffffffffffffffffffff82169050919050565b5f6113b88261138f565b9050919050565b6113c8816113ae565b81146113d2575f5ffd5b50565b5f813590506113e3816113bf565b92915050565b5f819050919050565b6113fb816113e9565b8114611405575f5ffd5b50565b5f81359050611416816113f2565b92915050565b5f5f6040838503121561143257611431611248565b5b5f61143f858286016113d5565b925050602061145085828601611408565b9150509250929050565b611463816113e9565b82525050565b5f60208201905061147c5f83018461145a565b92915050565b5f5f5f6060848603121561149957611498611248565b5b5f6114a6868287016113d5565b93505060206114b7868287016113d5565b92505060406114c886828701611408565b9150509250925092565b5f819050919050565b6114e4816114d2565b81146114ee575f5ffd5b50565b5f813590506114ff816114db565b92915050565b5f6020828403121561151a57611519611248565b5b5f611527848285016114f1565b91505092915050565b611539816114d2565b82525050565b5f6020820190506115525f830184611530565b92915050565b5f5f6040838503121561156e5761156d611248565b5b5f61157b858286016114f1565b925050602061158c858286016113d5565b9150509250929050565b5f60ff82169050919050565b6115ab81611596565b82525050565b5f6020820190506115c45f8301846115a2565b92915050565b5f602082840312156115df576115de611248565b5b5f6115ec84828501611408565b91505092915050565b5f6020828403121561160a57611609611248565b5b5f611617848285016113d5565b91505092915050565b5f5f6040838503121561163657611635611248565b5b5f611643858286016113d5565b9250506020611654858286016113d5565b9150509250929050565b7f4e487b71000000000000000000000000000000000000000000000000000000005f52602260045260245ffd5b5f60028204905060018216806116a257607f821691505b6020821081036116b5576116b461165e565b5b50919050565b6116c4816113ae565b82525050565b5f6060820190506116dd5f8301866116bb565b6116ea602083018561145a565b6116f7604083018461145a565b949350505050565b5f6020820190506117125f8301846116bb565b92915050565b7f4e487b71000000000000000000000000000000000000000000000000000000005f52601160045260245ffd5b5f61174f826113e9565b915061175a836113e9565b925082820190508082111561177257611771611718565b5b92915050565b5f60408201905061178b5f8301856116bb565b6117986020830184611530565b939250505056fea26469706673582212206ba7b6ff07dc00aeb8d0c627f1c9cce5191aa8424e2c98495062e10eb910425164736f6c634300081c0033","linkReferences":{}},"methodIdentifiers":{"BRIDGE_ROLE()":"b5bfddea","DEFAULT_ADMIN_ROLE()":"a217fddf","allowance(address,address)":"dd62ed3e","approve(address,uint256)":"095ea7b3","balanceOf(address)":"70a08231","burn(uint256)":"42966c68","burnFrom(address,uint256)":"79cc6790","burnFromBridge(address,uint256)":"568b4afe","decimals()":"313ce567","getRoleAdmin(bytes32)":"248a9ca3","grantRole(bytes32,address)":"2f2ff15d","hasRole(bytes32,address)":"91d14854","mint(address,uint256)":"40c10f19","name()":"06fdde03","renounceRole(bytes32,address)":"36568abe","revokeRole(bytes32,address)":"d547741f","supportsInterface(bytes4)":"01ffc9a7","symbol()":"95d89b41","totalSupply()":"18160ddd","transfer(address,uint256)":"a9059cbb","transferFrom(address,address,uint256)":"23b872dd"},"id":35}